:020000040000fa
:080000000002040000000000f2
:020000040000fa
:04000800520300009f
:020000040000fa
:04000c009403000059
:020000040000fa
:04001000f4030000f5
:020000040000fa
:040014007203000073
:020000040000fa
:04001800b40300002d
:020000040000fa
:04001c00d403000009
:020000040000fa
:0400200014040000c4
:020000040000fa
:040024006e06000064
:020000040000fa
:040028006e06000060
:020000040000fa
:04002c006e0600005c
:020000040000fa
:040030006e06000058
:020000040000fa
:04003400280600009a
:020000040000fa
:040038006e06000050
:020000040000fa
:04003c006e0600004c
:020000040000fa
:040040006e06000048
:020000040000fa
:040044006e06000044
:020000040000fa
:040048006e06000040
:020000040000fa
:04004c006e0600003c
:020000040000fa
:040050006e06000038
:020000040000fa
:04005400c2040000e2
:020000040000fa
:040058006004000040
:020000040000fa
:04005c006e0600002c
:020000040000fa
:040060006e06000028
:020000040000fa
:040064006e06000024
:020000040000fa
:040068006e06000020
:020000040000fa
:04006c006e0600001c
:020000040000fa
:040070006e06000018
:020000040000fa
:040074006e06000014
:020000040000fa
:040078006e06000010
:020000040000fa
:04007c006e0600000c
:020000040000fa
:040080006e06000008
:020000040000fa
:040084006e06000004
:020000040000fa
:040088006e06000000
:020000040000fa
:04008c006e060000fc
:020000040000fa
:040090006e060000f8
:020000040000fa
:040094006e060000f4
:020000040000fa
:040098006e060000f0
:020000040000fa
:04009c006e060000ec
:020000040000fa
:0400a000a6050000b1
:020000040000fa
:0400a400440500000f
:020000040000fa
:0400a8006e060000e0
:020000040000fa
:0400ac006e060000dc
:020000040000fa
:0400b0006e060000d8
:020000040000fa
:0400b4006e060000d4
:020000040000fa
:0400b8006e060000d0
:020000040000fa
:0400bc006e060000cc
:020000040000fa
:0400c0006e060000c8
:020000040000fa
:0400c4006e060000c4
:020000040000fa
:0400c8006e060000c0
:020000040000fa
:0400cc006e060000bc
:020000040000fa
:0400d0006e060000b8
:020000040000fa
:0400d4006e060000b4
:020000040000fa
:0400d8006e060000b0
:020000040000fa
:0400dc006e060000ac
:020000040000fa
:0400e0006e060000a8
:020000040000fa
:0400e4006e060000a4
:020000040000fa
:0400e8006e060000a0
:020000040000fa
:0400ec006e0600009c
:020000040000fa
:0400f0006e06000098
:020000040000fa
:0400f4006e06000094
:020000040000fa
:0400f8006e06000090
:020000040000fa
:0400fc006e0600008c
:020000040000fa
:040100006e06000087
:020000040000fa
:040104006e06000083
:020000040000fa
:040108006e0600007f
:020000040000fa
:04010c006e0600007b
:020000040000fa
:040110006e06000077
:020000040000fa
:040114006e06000073
:020000040000fa
:040118006e0600006f
:020000040000fa
:04011c006e0600006b
:020000040000fa
:040120006e06000067
:020000040000fa
:040124006e06000063
:020000040000fa
:040128006e0600005f
:020000040000fa
:04012c002e0500009c
:020000040000fa
:0401300012060000b3
:020000040000fa
:040134006e06000053
:020000040000fa
:040138006e0600004f
:020000040000fa
:04013c006e0600004b
:020000040000fa
:040140006e06000047
:020000040000fa
:040144006e06000043
:020000040000fa
:040148006e0600003f
:020000040000fa
:04014c006e0600003b
:020000040000fa
:040150006e06000037
:020000040000fa
:040154006e06000033
:020000040000fa
:040158006e0600002f
:020000040000fa
:04015c006e0600002b
:020000040000fa
:040160006e06000027
:020000040000fa
:040164006e06000023
:020000040000fa
:040168006e0600001f
:020000040000fa
:04016c006e0600001b
:020000040000fa
:040170006e06000017
:020000040000fa
:040174006e06000013
:020000040000fa
:040178006e0600000f
:020000040000fa
:04017c006e0600000b
:020000040000fa
:040180006e06000007
:020000040000fa
:040184006e06000003
:020000040000fa
:040188006e060000ff
:020000040000fa
:04018c006e060000fb
:020000040000fa
:040190006e060000f7
:020000040000fa
:040194006e060000f3
:020000040000fa
:040198006e060000ef
:020000040000fa
:04019c006e060000eb
:020000040000fa
:0401a0006e060000e7
:020000040000fa
:0401a4006e060000e3
:020000040000fa
:0401a8006e060000df
:020000040000fa
:0401ac006e060000db
:020000040000fa
:0401b0006e060000d7
:020000040000fa
:0401b4006e060000d3
:020000040000fa
:0401b8006e060000cf
:020000040000fa
:0401bc006e060000cb
:020000040000fa
:0401c0006e060000c7
:020000040000fa
:0401c4006e060000c3
:020000040000fa
:0401c8006e060000bf
:020000040000fa
:0401cc006e060000bb
:020000040000fa
:0401d0006e060000b7
:020000040000fa
:0401d4006e060000b3
:020000040000fa
:0401d8006e060000af
:020000040000fa
:0401dc006e060000ab
:020000040000fa
:0401e0006e060000a7
:020000040000fa
:0401e4006e060000a3
:020000040000fa
:0401e8006e0600009f
:020000040000fa
:0401ec006e0600009b
:020000040000fa
:0401f0006e06000097
:020000040000fa
:0401f4006e06000093
:020000040000fa
:0401f8006e0600008f
:020000040000fa
:0401fc006e0600008b
:020000040000fa
:040200006e06000086
:020000040000fa
:040204006e06000082
:020000040000fa
:040208006e0600007e
:020000040000fa
:04020c006e0600007a
:020000040000fa
:040210006e06000076
:020000040000fa
:040214006e06000072
:020000040000fa
:040218006e0600006e
:020000040000fa
:04021c006e0600006a
:020000040000fa
:040220006e06000066
:020000040000fa
:040224006e06000062
:020000040000fa
:040228006e0600005e
:020000040000fa
:04022c006e0600005a
:020000040000fa
:040230006e06000056
:020000040000fa
:040234006e06000052
:020000040000fa
:040238006e0600004e
:020000040000fa
:04023c006e0600004a
:020000040000fa
:040240006e06000046
:020000040000fa
:040244006e06000042
:020000040000fa
:040248006e0600003e
:020000040000fa
:04024c006e0600003a
:020000040000fa
:040250006e06000036
:020000040000fa
:040254006e06000032
:020000040000fa
:040258006e0600002e
:020000040000fa
:04025c006e0600002a
:020000040000fa
:040260006e06000026
:020000040000fa
:040264006e06000022
:020000040000fa
:040268006e0600001e
:020000040000fa
:04026c006e0600001a
:020000040000fa
:040270006e06000016
:020000040000fa
:040274006e06000012
:020000040000fa
:040278006e0600000e
:020000040000fa
:04027c006e0600000a
:020000040000fa
:040280006e06000006
:020000040000fa
:040284006e06000002
:020000040000fa
:040288006e060000fe
:020000040000fa
:04028c006e060000fa
:020000040000fa
:040290006e060000f6
:020000040000fa
:040294006e060000f2
:020000040000fa
:040298006e060000ee
:020000040000fa
:04029c006e060000ea
:020000040000fa
:0402a0006e060000e6
:020000040000fa
:0402a4006e060000e2
:020000040000fa
:0402a8006e060000de
:020000040000fa
:0402ac006e060000da
:020000040000fa
:0402b0006e060000d6
:020000040000fa
:0402b4006e060000d2
:020000040000fa
:0402b8006e060000ce
:020000040000fa
:0402bc006e060000ca
:020000040000fa
:0402c0006e060000c6
:020000040000fa
:0402c4006e060000c2
:020000040000fa
:0402c8006e060000be
:020000040000fa
:0402cc006e060000ba
:020000040000fa
:0402d0006e060000b6
:020000040000fa
:0402d4006e060000b2
:020000040000fa
:0402d8006e060000ae
:020000040000fa
:0402dc006e060000aa
:020000040000fa
:0402e0006e060000a6
:020000040000fa
:0402e4006e060000a2
:020000040000fa
:0402e8006e0600009e
:020000040000fa
:0402ec006e0600009a
:020000040000fa
:0402f0006e06000096
:020000040000fa
:0402f4006e06000092
:020000040000fa
:0402f8006e0600008e
:020000040000fa
:0402fc006e0600008a
:020000040000fa
:040300006e06000085
:020000040000fa
:040304006e06000081
:020000040000fa
:040308006e0600007d
:020000040000fa
:04030c006e06000079
:020000040000fa
:040310006e06000075
:020000040000fa
:10040000afa421000eff24000e01880000000000b0
:10041000000020000000e000020032000001200087
:100420002002880014000700a30207000000e0007b
:1004300003003a00c08426000100200002003700bb
:100440000000200001002000810f70000100320038
:100450000f000700000020000000e0000200320052
:1004600000000200000000003670020000000000e2
:100470000040da000000fe00e02720000000e0005d
:1004800002003200002020009001880000000600d9
:10049000a1028800800478000000eb001f003700f4
:1004a000e284440054a0b4009905ba00e2844400f8
:1004b00054a0b4009906ba00e284440054a0b400e9
:1004c0000006eb00476fde00fd07b200ae018800ba
:1004d000636ce10003003a000ad801000000eb0061
:1004e0000e003700606ce10008003a00004deb00a0
:1004f0000a05e800020039003420ec000af0a000f0
:100500008b05e900f9ff3e00040037006168e10057
:10051000010032000086eb000b00070019c7ba008b
:100520000e04e0001905ba0003003a000a00e000da
:10053000dbff3a0000000600fe07b200ae028800b2
:100540008a047800f5ff37000cd0a300e20f4d00bd
:100550001c00390089027800354dba000a05e80010
:10056000020039003420ec000af0a0008b05e900fd
:100570000f003200254dba000a05e80002003900dc
:100580003420ec000af0a0008b05e90008003200de
:100590000c00e0000600320015cdba000a05e800a4
:1005a000020039003420ec000af0a0008b05e900bd
:1005b0008984e80054a0b4000b00e000e2ff3a0098
:1005c000000006009902ba00055d78008b05e9007d
:1005d000f7ff3200c82ade00055d78008b05e900d0
:1005e000f3ff32000c00e000f1ff320019ddba0029
:1005f000eeff3700b869040000000000d06f04006f
:10060000000000001e6a040000000000386a0400b8
:10061000000000006a6a040000000000986a0400fc
:1006200000000000c86a040000000000d46a040052
:1006300000000000fa6a040000000000de6a040006
:1006400000000000da6f040000000000f262040005
:10065000000000001063040000000000a05f040020
:1006600000000000be5f040000000000726c040087
:10067000000000008e0b0400000000002c0d0400a0
:1006800000000000460d040000000000740d04008e
:1006900000000000fa180400000000000000040040
:1006a000000000003600f800809fbe00829fbe0060
:1006b000849fbe00869fbe000000fa00c028a900eb
:1006c0000000eb005d3607000080fa004f03be001b
:1006d0004f02be004f01be004f00be003600f900c1
:1006e000004006003600f800809fbe00829fbe00da
:1006f000849fbe00869fbe000000fa0054360700ab
:10070000c048a900100020004c3607000080fa0005
:100710004f03be004f02be004f01be004f00be009f
:100720003600f900004006003600f800809fbe0049
:10073000829fbe00849fbe00869fbe000000fa001c
:10074000c068a900200020003c3607000080fa00a5
:100750004f03be004f02be004f01be004f00be005f
:100760003600f900004006003600f800809fbe0009
:10077000829fbe00849fbe00869fbe000000fa00dc
:10078000c088a900300020002c3607000080fa0045
:100790004f03be004f02be004f01be004f00be001f
:1007a0003600f900004006003600f800809fbe00c9
:1007b000829fbe00849fbe00869fbe000000fa009c
:1007c000c0a8a900400020001c3607000080fa00e5
:1007d0004f03be004f02be004f01be004f00be00df
:1007e0003600f900004006003600f800809fbe0089
:1007f000829fbe00849fbe00869fbe000000fa005c
:10080000c608a900700020000c3607000080fa001e
:100810004f03be004f02be004f01be004f00be009e
:100820003600f900004006003600f800809fbe0048
:10083000829fbe00849fbe00869fbe000000fa001b
:100840002146800000102000008060000000e000d1
:1008500003003200c508a900c0002000f7350700da
:100860002146800000002800008060000000e000b9
:1008700003003200c5e8a90080002000ef35070022
:100880002146800000022000008060000000e0009f
:1008900003003200c4a8a90090002000e73507003b
:1008a00020468000700060000000e000030032007d
:1008b000c488a900a0002000e0350700ffff370032
:1008c0003600f800809fbe00829fbe00849fbe005d
:1008d000869fbe000000fa00a08680000000e000b5
:1008e00002003200a08680000000010081868000a6
:1008f00070868000808f500002003a002188a90095
:10090000190037000188a900100037008086800098
:10091000904078008180fb00211188000000e800f1
:100920008086880081868000107f2100808f5000a3
:1009300002003a00807e2100808688008186800047
:1009400070868000808f50000600320011118000f8
:1009500000202000008060000000e000ebff32007b
:1009600001003700000000000080fa004f03be00c5
:100970004f02be004f01be004f00be003600f9001e
:10098000004006003600f800809fbe00829fbe0037
:10099000849fbe00869fbe000000fa00b0868000e3
:1009a0000000e00002003200b0868000000001007c
:1009b0000168a9001e0037005086800031118000b8
:1009c000814078000148780051868000907f2100a6
:1009d000808f500009003200508680008000e800bf
:1009e00060868000808f50000400320050868000b6
:1009f0000000e800508688000d0037005186800016
:100a0000907f2100808f500007003a0061868000af
:100a1000107f2100808f500003003200107f2100e2
:100a2000508688000200370010c0b300d2f0b70033
:100a300010118000610060000000e000deff3a005d
:100a40000080fa004f03be004f02be004f01be00ff
:100a50004f00be003600f90000400600801f7800fd
:100a60000000fa0010118000620060000000e00049
:100a7000010032002222a9000828a9000080fa0003
:100a80004f007800004006003600f800809fbe004e
:100a9000829fbe00849fbe00869fbe000000fa00b9
:100aa000108780000000e000020032001087800004
:100ab00000000100f1868000e0868000808f5000f9
:100ac00002003a0023e8a9001900370003e8a90052
:100ad00010003700f0868000904078008180fb0095
:100ae000a11188000000e800f0868800f1868000ef
:100af00030802100808f500002003a00a07f21004a
:100b0000f0868800f1868000e0868000808f5000ab
:100b1000060032009111800000202000008060005b
:100b20000000e000ebff3200010037000000000091
:100b30000080fa004f03be004f02be004f01be000e
:100b40004f00be003600f900004006003600f800f5
:100b5000809fbe00829fbe00849fbe00869fbe0015
:100b60000000fa00208780000000e0000200320050
:100b7000208780000000010003c8a9001e00370084
:100b8000c0868000b1118000814078000148780063
:100b9000c1868000b0802100808f500009003200a3
:100ba000c08680008000e800d0868000808f5000e2
:100bb00004003200c08680000000e800c086880083
:100bc0000d003700c1868000b0802100808f50006a
:100bd00007003a00d186800030802100808f5000cd
:100be0000300320030802100c086880002003700f8
:100bf00010c0b300e0f0b700901180006100600009
:100c00000000e000deff3a000080fa004f03be0063
:100c10004f02be004f01be004f00be003600f9007b
:100c200000400600801f78000000fa00901180004c
:100c3000620060000000e000010032003222a900e2
:100c40000848a9000080fa004f0078000040060024
:100c50003600f800809fbe00829fbe00849fbe00c9
:100c6000869fbe000000fa00b08780000000e80008
:100c7000b0878800b187800000808000808f50009e
:100c800006003900a08780000000e000020032006a
:100c9000a087800000000100f630ef0010842100e2
:100ca000104078008040e80010842100014878005e
:100cb0000084210011c0b300014878000068a90039
:100cc0000080fa004f03be004f02be004f01be007d
:100cd0004f00be003600f900004006000040da0078
:100ce0000000fe000a00fa0011002000b1bf9f00c2
:100cf000c0bf9f006a805700f50907004fb89700f2
:100d00000080fa00000006000a00fa00e20f50001e
:100d100034003e0030c28000e10f5000030032007a
:100d2000e20f500011003a000c00370003222000af
:100d30000300e00001003a000040da002002e20077
:100d4000020035002822ef0021e2a8002342ab0078
:100d50000d003a002342a8000b00370003232000b7
:100d60000300e00001003a000040da003002e20037
:100d7000020035003822ef0031e2a8003342ab0018
:100d800001003a003342a800820178000b003700ce
:100d90003102fb00e10f500004003a002322ab00b7
:100da000feff3a0024118800030037003322ab0015
:100db000feff3a00a41188008301e9000300e0006f
:100dc000f3ff3a00e10f500003003a002302ab00aa
:100dd000feff32000b0037003302ab00feff320093
:100de0000800370033002000b3bf9f00c0bf9f0042
:100df000d1bf9f00e2bf9f006a805700b60907007d
:100e00006fb99700020078000080fa000000060029
:100e10000a00fa0051002000b1bf9f00c0bf9f0030
:100e20006a805700ae0907005fb897000080fa009b
:100e300000000600889fbe008004780040c2800049
:100e40000000e00004003a000e0007000084eb0000
:100e50000000e0000800350048c280000900e00002
:100e60000500320009004400060007000000e00011
:100e700001003d000084eb00080078004f04be0034
:100e800000000600800078000100e00003003a0046
:100e9000a084210040c28800000005000080eb0013
:100ea000a2a42100828f500002003e0041c28800af
:100eb0000000eb00000006000000050003f0a200a7
:100ec000889fbe008a9fbe008c1f78000401070027
:100ed0000b0133006450e1004f0032006420e10058
:100ee0005200320003826c0007003b000905d0006d
:100ef0000306d000820f54000c065d00020039008a
:100f000002003200890178000306780085825500ce
:100f100004003d000003fd008103fd008502ea009e
:100f20008b854200840f720002003b0060001000bd
:100f3000e08018006011b8000005eb007a28e1009d
:100f40000a00390006007800c75ddd00f707b2002f
:100f5000878075002d003700828171000a017800ba
:100f6000610560008180d1000080d3008502e90026
:100f7000f9ff3b00060440008784480002003b0064
:100f800060041400e0841c000988a30007003200fc
:100f90008a81710082817100610164008904d1003d
:100fa0000884d3008b05e800170037000978a300f8
:100fb00013003a000b00e000130034008b05e90039
:100fc0000804440089844c000a4474000978a30092
:100fd0000d003a000b00e000070034008b05e9002b
:100fe0000804440089844c0001003a000b002000f2
:100ff0000978a300f7ff32000001eb000200370080
:10100000828171000a0178007a0007000cf0a700c5
:1010100001f0a000c30037006420e10002003a00a4
:10102000838f6c00c30033000801be000200be00c5
:10103000bc003700889fbe008a9fbe008c1f7800ce
:10104000a7000700ae00330003866c006450e10087
:101050002e0032006420e100330032006150e100d4
:101060002f0032006120e1003100320085855500fb
:10107000eb07b0000900200008042000050037003d
:101080000804440089844c000a0031000603430030
:1010900087834b000001530081815b00f8ff330020
:1010a0000203be000800a0000804440089844c002c
:1010b000f6ff3900c639dd008301730001003200fc
:1010c000130020008904d1000884d3000998a300ec
:1010d000050032000800a7000300a0008904d10029
:1010e0000884d3008b05e8008904d1000884d3006c
:1010f0000001eb000281d2003e00070001f0a100d8
:101100000cf0a70001f0a000860037006420e10089
:10111000880032000801be000200be00f7ff370061
:101120006120e100830032006000b800f3ff370067
:101130000000200001f82700f0ff37000001be008a
:10114000520007000470a70003f0a1006509b10078
:10115000160032000d0035006828e1000600350059
:10116000f0ff2f00f1ff27000300e00013003b0019
:1011700001002800000005000000400081804800b8
:101180008502e900fcff3a0008003700f88f4200b2
:1011900002003c008000eb00000005008100d1004f
:1011a0000080d3008502e800fcff3a000300e00065
:1011b00002003b0060001000e08018000000060004
:1011c0004f89de0082017800c80037006011b80046
:1011d000d60037000001eb009d000700040032003c
:1011e0000200200003f8230001f0a70033ff0700ee
:1011f0000000060081002000618055000b003d00ca
:101200000b00200061fe2f000100e1001d003400f2
:1012100082817100610164008904d1000884d300d7
:101220000000e800faff3a0071002000610064004d
:1012300003007000020060000900320061044400f5
:10124000e0844c000988a500050032008b05e80009
:101250006808e10002003a008904d1000884d30044
:10126000f20f20000258e10005003d00c75ddd00df
:10127000f907b200898075000800780000000600b8
:101280000bf827008b00780000000500c70ade007d
:10129000f107b200f50fb20008003200e1cf4200c2
:1012a000020032000170a00024000500810f7000d0
:1012b000010032000408050044000500810f7000a1
:1012c00002003a00140005008502e9000000400019
:1012d00081c04800fcff3b000170a0002400050015
:1012e0000004be00e9ff07000003be000405be00c5
:1012f0000200be00e5ff0700844f750000000600f5
:101300000200be006450e100050036006420e100e8
:10131000020036000968a30001003a000800be0080
:101320000160a0004f0678004f05be004f04be00cc
:1013300000000600f0ff2f00f1ff2700f9ff370043
:10134000889fbe008a9fbe008c1f7800e4ff0700c4
:10135000ebff330003866c006450e1002400320090
:101360006420e100270032006150e10022003200d9
:101370006120e100210032008b854200eb07b100c3
:101380000134b800003ab8000804420089844a00d9
:10139000013ab8000030b8008880400009014a00d6
:1013a0000400330000004000818048000201490031
:1013b0008b05e900c909dd008301700001003200de
:1013c00013002000c814de004814dd004709de00c9
:1013d0001200b200c808de000884700085ff070014
:1013e00001f0a1000cf0a70001f0a000cdff370034
:1013f0006120e100cfff32000801be000200be0004
:10140000f7ff37006150e100fcff3a00c9ff3700e9
:101410006022b800060220000000d0008180d200c7
:101420000482d2008582d2000000a0000202520095
:1014300083825a00030031000202420083824a0084
:101440000000a1000603e900f3ff3a0000000600d7
:10145000889fbe008a9fbe000003be008bff07006e
:101460008505780082815200020020006220e100a0
:1014700004003a00f307b100040035007718e100da
:10148000040035000600be00140037006000b800fc
:101490000f003700f50f2000faff2f008502d10062
:1014a0000a85d3008301e900fcff3b0081846200d0
:1014b00000046500890f7400f2ff32008582ea00a3
:1014c0000a85ea00818462000004650049ff070084
:1014d00007f0a70001f0a0000081eb000200e0008f
:1014e0004f05be004f04be0000000600881f7800b4
:1014f000030478000300e00007003d0060001000d6
:10150000e080180060011900e081190002003b0032
:1015100001f02d00030037000400070008f0a700c9
:1015200001f0a0004f04780000000600889fbe0074
:101530008a9fbe0000827000040271000482710064
:10154000260032000004be000200be006011b80098
:101550006b092000950220000182cf000a003900ab
:101560000541b1000082cf00070039000541b100fc
:101570000982cf00040039000541b1000882cf0084
:10158000010039000541b10005425200120032004d
:101590000a003b0082817100610164008100d1007a
:1015a0000080d3008984d3000884d3008b05e80031
:1015b0000442e800f7ff3a0007003700080444003f
:1015c00089844c0000004800818048008b05e900b8
:1015d0000442e900f9ff3a0006ff07004f05be008c
:1015e0004f04be00000006008001780002003700b2
:1015f000b15978000201e9000200e000fcff3a0066
:101600000000060080017800020037008159780050
:101610000201e9000200e000fcff3a0000000600c1
:10162000020037000204e0000b0032008101780064
:101630000002780030417800b14f5100f9ff3200cc
:101640001000200014427800934f52000300310034
:101650000080eb00000006000000eb000000060028
:1016600000017800b1417800035978000304e000dc
:10167000fcff3a000000060005003700854f5200cd
:101680000a003200b34278000504e000fbff3a0094
:1016900000017800304278000404e00002003200cb
:1016a00081017800f7ff37000001eb0002007800ad
:1016b00000000600889fbe00810478000000e00062
:1016c00002003a00d8c18000010037000004780011
:1016d0000800be005c030700000444001804e0009a
:1016e00004003a0080832100d0c188000004eb0090
:1016f000070037000800be003c030700000044005c
:101700001004e000010032000058eb00d0c1880056
:10171000080078004f04be0000000600889fbe004d
:10172000000478000203be008104780008027800fb
:1017300089017800120020000600be006b0507003a
:10174000890f5000010032000004eb00080078000f
:101750004f04be00000006006800fa00889fbe002b
:101760008a9fbe008004780001047800820578001a
:10177000030578008400780000f92f000f00400076
:1017800058050700d98f9f00fb8f9f000000eb00da
:10179000a09f9f00e88f9f009a84fb000904fb0034
:1017a0008904ea00cf4cde0050022000800f540074
:1017b0000d003200e18f54000b003a00090178005f
:1017c0008a0078007f889700df8997000300010076
:1017d000f08f9f000000e000950032002f989700e6
:1017e0000000e800a09f9f0009054500500220006e
:1017f000800f5400040032000800e000e6ff3a00c9
:101800002f9897008b0037000000eb00809f9f000f
:10181000f0979f00e0979f00d0979f00c0979f0090
:10182000b0979f0007003700817c21000100500025
:1018300000004000c17b2100808040004f9897004d
:1018400011007000c09f9f000a047800080578000e
:10185000ba4478008900fb00807c2100d702070091
:101860000000e000f0ff3a00a1c2b30081cf5400b5
:101870000e003a008f8897000180e900808f9f005a
:1018800010007800b09f9f000000e00005003d00c0
:101890000000ea00b09f9f004f9897000020a00032
:1018a000c09f9f000804e80010003700b09f9f0011
:1018b000880078000000eb0005003700f3ff2700e8
:1018c000830f500002003200ea00b900000041001e
:1018d00001047800880078003101fb000203b100a8
:1018e000e90f5100f5ff3600b09f9f00e0c2b30042
:1018f000984f1000020032000080eb001900370002
:10190000a0c2b300d84f100007003a008f8897009c
:101910000180e900808f9f0010007800909f9f0059
:101920000804e800100037000000eb00909f9f00c3
:101930008800780005003700f3ff2700830f500070
:1019400002003200ea00b900000041000104780002
:10195000880078003101fb000203b100e90f51005b
:10196000f5ff3600909f9f00984478008900fb00a7
:10197000407b2100910207000000e00002003200dd
:101980000804e800010037008044eb00a97f9f00b5
:1019900080c6b30080cf540006003a0098cf1400f0
:1019a00010003a0066405000a07f9f000804e80045
:1019b0000c003700c0c6b30080cf540009003a00c5
:1019c00098cf140007003a0067404000d84f10003d
:1019d00002003a006e4050000100370010c7b3000b
:1019e000a07f9f001801fb00c3fb2f008f814100e7
:1019f00001f92f008f80400020f92f000f004000d8
:101a0000080107000000e00009003a00c1fb2f00b8
:101a10008f80400020f92f000f004000d7030700ff
:101a20000000e000020035000805e8005aff37001a
:101a30000080eb004f05be004f04be000080fa009e
:101a4000000006000302780082017800010178009e
:101a5000e1b8200040ff3700889fbe008004780076
:101a60000203be00010478006149b800898fd200ea
:101a70008381d200080278000600be009a060700a3
:101a8000088044004f04be0000000600881f780054
:101a90000204780008017800d3fe07000800400027
:101aa0004f047800000006000000fa00881f78004c
:101ab000000478006a825700bfb9970008017800d7
:101ac000c1d2200060d42000160007000000e00012
:101ad0000200350000044400004ceb004f04780085
:101ae0000080fa0000000600889fbe000004780015
:101af0000203be00810478000802780089017800a2
:101b0000120020000600be0078040700890f500074
:101b1000010032000004eb00080078004f04be0012
:101b2000000006006800fa00889fbe008a9fbe0081
:101b300080047800010478008205780003057800ad
:101b40008400780000f92f000f00400065040700b2
:101b5000d98f9f00fb8f9f000000eb00a09f9f008c
:101b6000e88f9f009a84fb000904fb008904ea00c7
:101b7000cf4cde0050022000800f54000d003200d8
:101b8000e18f54000b003a00090178008a007800c8
:101b90007f889700df89970003000100f08f9f0086
:101ba0000000e000950032002f9897000000e80048
:101bb000a09f9f000905450050022000800f54009f
:101bc000040032000800e000e6ff3a002f9897007a
:101bd0008b0037000000eb00809f9f00f0979f0074
:101be000e0979f00d0979f00c0979f00b0979f00fd
:101bf00007003700217e2100010050000000400056
:101c0000617d2100808040004f9897001100700096
:101c1000c09f9f000a04780008057800ba44780045
:101c20008900fb00207e2100e40107000000e000a5
:101c3000f0ff3a00a1c2b30081cf54000e003a0079
:101c40008f8897000180e900808f9f001000780046
:101c5000b09f9f000000e00005003d000000ea008a
:101c6000b09f9f004f9897000020a000c09f9f004a
:101c70000804e80010003700b09f9f00880078003b
:101c80000000eb0005003700f3ff2700830f500032
:101c900002003200ea00b9000000410001047800af
:101ca000880078003101fb000203b100e90f510008
:101cb000f5ff3600b09f9f00e0c2b300984f1000c0
:101cc000020032000080eb0019003700a0c2b30010
:101cd000d84f100007003a008f8897000180e90074
:101ce000808f9f0010007800909f9f000804e800fc
:101cf000100037000000eb00909f9f0088007800e4
:101d000005003700f3ff2700830f50000200320068
:101d1000ea00b90000004100010478008800780062
:101d20003101fb000203b100e90f5100f5ff36005d
:101d3000909f9f00984478008900fb00e07c210080
:101d40009e0107000000e000020032000804e800e5
:101d5000010037008044eb00a97f9f0080c6b300dc
:101d600080cf540006003a0098cf140010003a00cb
:101d700066405000a07f9f000804e8000c00370078
:101d8000c0c6b30080cf540009003a0098cf1400b9
:101d900007003a0067404000d84f100002003a00a8
:101da0006e4050000100370010c7b300a07f9f00b5
:101db0001801fb00c3fb2f008f81410001f92f00a8
:101dc0008f80400020f92f000f0040001500070011
:101dd0000000e00009003a00c1fb2f008f804000a6
:101de00020f92f000f004000e40207000000e0008f
:101df000020035000805e8005aff37000080eb00bc
:101e00004f05be004f04be000080fa00000006002f
:101e100003027800820178000101780041d7200098
:101e200040ff3700889fbe008a1f780000047800ba
:101e30000100780082407800e2c6b30082cf5000f3
:101e4000d100320015003c006b41510082cf5000a0
:101e5000240032000a003c007041510082cf500043
:101e60000a0132006541410082cf50007200320009
:101e700050c2b30080cf50003a013a00360137001b
:101e800042c6b30082cf50001c00320065414100c1
:101e900082cf500033013a001800370032c7b30038
:101ea00082cf5000f900320007003c00644151002d
:101eb00082cf5000600032000241e80082cf500023
:101ec00028013a00e300370052c7b30082cf500028
:101ed000590032006341410082cf500021013a0095
:101ee000550037009080e90001087800280890002c
:101ef00080814100914978002001370008699000f5
:101f0000c4c6b300844f510008003a0010027800a4
:101f100064015200020878001202780092029000d8
:101f20004fabde00860378001300370014c7b30000
:101f3000844f510003003200a4c6b300844f510007
:101f400008003a0010027800680152000208780088
:101f5000120278009202900022039000b2039000d7
:101f6000050037001081e9000208780012027800ad
:101f7000cfa2de00612bb900049cbe000694be0017
:101f80000868900082c6b300824f50000d003200f6
:101f900022c6b300824f500004003a000402fb0046
:101fa000cfa2de00612bb9000800370042c7b300a2
:101fb000824f50000300320066414100824f5000c2
:101fc00004003a00cfa2de00612bb900049cbe00e1
:101fd0000694be0018027800980290002803900032
:101fe000b803900028089000e00f5200e08f5a00dc
:101ff000e00f5b00e08f5b0003003d0000814100cb
:10200000d4c2b3000a003700381190000218a300b0
:102010000300320000814100b4c2b3000400370065
:102020000208a300540032000081410004c2b30042
:10203000044978004e00370008699000c4c6b30018
:10204000844f510007003a001002780064015200ea
:102050000208780012027800920290006033b80003
:102060001300370014c7b300844f5100030032003f
:10207000a4c6b300844f510008003a001002780053
:102080006801520002087800120278009202900063
:1020900022039000b2039000050037001081e90090
:1020a00002087800120278008002eb006033b8006a
:1020b000049cbe000694be000868900082c6b3006f
:1020c000824f50000d00320022c6b300824f5000f4
:1020d00004003a000482fb008002eb006033b80089
:1020e0000800370042c7b300824f5000030032009f
:1020f00066414100824f500004003a008002eb002c
:102100006033b800049cbe000694be0038109000f6
:102110000038a300180032001802780098029000de
:1021200028039000b8039000e00f5200e08f5a009f
:10213000e00f5b00e08f5b000f00320080c7b30050
:1021400080cf50000300320080c5b30080cf500024
:1021500009003a00280890000081410004c3b30040
:10216000044978000000e80000814100014978003e
:102170000000e800200c98002808900080814100b1
:10218000730498003e00370008699000c3c6b3008e
:102190009080e900834f5100220032000a003c0089
:1021a000e4c15100834f51002500320083c1e80093
:1021b000834f510013003200e8c15100834f51009a
:1021c0001e003a000a00370043c7b300834f510096
:1021d0001b003200e6c14100834f5100180032005d
:1021e000e9c15100834f510014003a000500370047
:1021f00001087800110078002864900008487800f1
:102200006000370001087800110078001812900073
:10221000cfa2de00612bb9000498be000690be007c
:10222000580037000108780011007800181190005c
:10223000cf91de000288be00520037009080e90096
:102240000108780011007800181490000808780040
:102250004c0037009080e9000108780011027800f6
:10226000cfa2de00612bb900049cbe000694be0024
:1022700028089000808141007304980081c7b30052
:1022800008007800800007003e00370008699000d1
:1022900051c6b300814f51001b003a001001780075
:1022a000e4005100010878001100780091009000ce
:1022b000000c9800110c9800881190000300e000b9
:1022c00007003d008081eb000001eb00af04070038
:1022d0000001be008808900081005100080037000e
:1022e0000001eb00a9040700008170000300320028
:1022f000080990008200500001003700881090000b
:10230000410c98001f0037009080e9000108780018
:10231000110578007a049800881490000900e00004
:1023200004003d000a0078004100070080047800a6
:1023300007003700090178008000eb000a007800f0
:10234000140007000000e000010032008a04500081
:10235000490c98000b00370028089000808141004c
:102360000500370028089000808141000104e0004a
:1023700001003a0051c2b300814978000000e80032
:10238000200c98000000eb004f0578004f04be00c1
:102390000000060003003700b0cf10000500320037
:1023a0000201e900800178000200e000faff3a0033
:1023b000000005000300780000000600020037005e
:1023c0000304e000060032000001780002007800fb
:1023d000b041780081cf5100f9ff3a000100370089
:1023e0000001eb0002007800000006000001780008
:1023f0000700370086cf520002003a0000805100eb
:1024000000000600344378000604e000f9ff3a00bb
:1024100082017800b24278000504e0000200320038
:1024200001027800f7ff370000805100000006002d
:1024300080007800010178003104e000fdff3a00df
:10244000000051000000060000017800080037007d
:1024500081027800354378000604e00002003a006b
:102460000080510000000600864f5200f9ff3a003c
:1024700082017800324278000404e000f4ff3a0060
:102480000080510000000600fc874700889fbe00c6
:102490008a9fbe008c9fbe008e1f780000067800c9
:1024a00080c5b30080cf50000a0032007740400062
:1024b00080cf50000a0032006940400080cf5000b9
:1024c0000b0032003078210080bf9f00ae0020005a
:1024d0000a0037002277210082bf9f0006003700e4
:1024e0003378210083bf9f008e0020000300370057
:1024f0003478210084bf9f000e0120001c02780068
:102500009c0290002c039000bc0390000605be00c6
:102510000404be0040c6b30080cf50000300320068
:102520006540400080cf50000b003a00e00f5200a1
:10253000e08f5a00e00f5b00e08f5b0006003d007b
:102540006000b8006011b800040450008584580091
:102550000605590087855900e80f5700040032002e
:1025600040002000f00f57003c003a000100370007
:1025700030002000e00f5400e08f5c00e00f5d00b1
:10258000e08f5d0004003a008c1090008d01200067
:102590000100e000070032008e00e9008880600042
:1025a0008fba97008180420091407800f1ef9f0040
:1025b0007d012000800078008100e90005003300e3
:1025c0008b05d1000a85d3008984d3000884d30009
:1025d000f9ff3700089ebe000a96be0013003700c0
:1025e0008d06e9008e00e900848060000fb9970035
:1025f000810041001141780083fd2f008d81410051
:1026000082f77900800178008301e900050033003a
:102610008783d1000683d3008582d3000482d30050
:10262000f9ff3700049ebe000696be001c0278002b
:102630009c0290002c039000bc039000e00f52001d
:10264000e08f5a00e00f5b00e08f5b0093003400e6
:102650000d00e000e2ff3c00900037000c689000a5
:1026600081c6b300814f50000b00320006003c00d1
:102670000004e00008003200e6c05000814f500026
:1026800052003a0004003700c1c6b300814f500029
:102690004e003a00230037000800e00004003a0032
:1026a0000c1090008d0120000000e00007003200b7
:1026b000110009000e84d8000fba970001004200f3
:1026c00010407800f0ef9f007d012000110009000c
:1026d0000e84d8000b003700110009000e04d8004a
:1026e0008d06e9008e81b900020454008fb897006e
:1026f000088440009841780082fd2f000d014100c0
:1027000083777900000478000800e00002003200be
:102710000d00e000f0ff3c00cfc4de00614db900c9
:1027200027003700e00f5400e08f5c0004003a00ff
:102730000c1090008d0120000000e0000800320025
:102740006171b9000800be00ba0307000fba970014
:102750008000420091407800f1ef9f007d01200051
:102760006171b9000800be0029fb07000c003700aa
:102770006171b9000800be009f0307008d06e900e3
:1027800080f1b900020454008fba97000884420017
:102790009841780082fd2f000d0141008377790078
:1027a0000004be00e00f5000e08f5800020032002d
:1027b0000d00e000eeff3c004fcdde008a05780002
:1027c000089ebe000a96be0034003700e00f540099
:1027d000e08f5c00e00f5d00e08f5d0004003a00d8
:1027e0000c1090008d0120000000e0000a00320073
:1027f0006172b900612bb9000800be000a01be0079
:10280000370407000fba970080004200914078001b
:10281000f1ef9f007d0120006172b900612bb900ca
:102820000800be000a01be00260407000e003700a3
:102830006172b900612bb9000800be000a01be0038
:102840002b0407008d06e90080f2b900040454004f
:102850008fba9700088442009842780084fd2f00c8
:102860000d02420085777a00009ebe000296be00ef
:102870001c0478009c0490002c059000bc0590007e
:10288000e00f5400e08f5c00e00f5d00e08f5d0022
:10289000020034000d00e000e5ff3c00e80f5700a7
:1028a00010003a003c1090000038a3000d003200e8
:1028b000f78f560006003e0080fd2f000d004000ff
:1028c000ef40780000c3b30080cf50000500320015
:1028d00002c3b30071fd2f008d8040008d06e9001a
:1028e00082f7780078811600420e98007c009000f4
:1028f00083fd2f008f8141008d8041003afb07004e
:102900004c0890008c109000810f500006003d0094
:1029100000805000300e98003c1090000040a10054
:10292000301698000f0037000100e0000d003d0058
:10293000bc109000f4806000f08f500009003a0055
:102940002c119000ac089000810051003c099000cf
:1029500082805000008050004240a90001003400f5
:10296000300e98004f0778004f06be004f05be009e
:102970004f04be00cf01b100000006000400fa00c1
:10298000889fbe008a9fbe008c1f780000047800dc
:1029900001067800a8149000280890008084540054
:1029a00038089000808454004808900080845400c7
:1029b0005808900080845400680890008084540077
:1029c00078089000808454000002220090bf9f008d
:1029d00000032300a0bf9f00381090000028a30030
:1029e00015003a000900e0001300340009057800e2
:1029f0008a057800e20f5500010036002b00200008
:102a0000c80190000b017800ee805700680090002c
:102a100003000100600498000000e000aa003200fa
:102a2000181090000b004000101498000b05550082
:102a30004240a900eeff3c00280990000200e0009f
:102a40000c003400c80190008c00780068009000f1
:102a500003000100600498008080eb000000e000ab
:102a60009a003200981090002808900000804000e2
:102a700010149800380d90000a00e0001100340096
:102a80008a057800e20f5500010036002b00200077
:102a9000c80190000b017800ec805700680090009e
:102aa00003000100600498000000e000860032008e
:102ab000181090000b004000101498000b055500f2
:102ac000edff370008699000c808900050c6b300b9
:102ad000804f510008003a000100e000150034006a
:102ae0005802900008099000980990006800900032
:102af00004000100070037000100e0000d00340071
:102b0000c801900001017800f80090006800900072
:102b100003000100600498008080eb000000e000ea
:102b20006a00320098109000480890000080400031
:102b300010149800580d90000a00e00011003400b5
:102b40008a057800e20f5500010036002b002000b6
:102b5000c80190000b017800ec80570068009000dd
:102b600003000100600498000000e00056003200fd
:102b7000181090000b004000101498000b05550031
:102b8000edff3700086990006808900051c6b30057
:102b9000814f51000d003a000000e0001c0034009d
:102ba00078019000c8089000010141006111b8004f
:102bb000828fd2008381d20058029000800078007a
:102bc0006800900004000100090037000000e000e8
:102bd0000f00340078019000c80890008100410087
:102be000c801900000017800680090000300010017
:102bf000600498008080eb000000e00033003200a9
:102c00009810900068089000008040001014980010
:102c1000780d90000a00e000110034008a05780069
:102c2000e20f5500010036002b002000c801900083
:102c30000b017800ec805700680090000300010051
:102c4000600498000000e0001f003200181090009f
:102c50000b004000101498000b055500edff3700e5
:102c6000381090008000eb000028a300170032000d
:102c70000900e0001500340009057800e28f5400d7
:102c8000010036002a002000c80190000a017800e7
:102c9000ee80570068009000030001006004980077
:102ca0000000e00008003200181090000a00400008
:102cb000101498008a8454004240a900eeff3c00a2
:102cc0008000eb00010037008080eb0001007800fd
:102cd0004f0678004f05be004f04be000080fa008a
:102ce000000006000108780000000600e6874700a3
:102cf000889fbe008a9fbe008c9fbe008e1f7800fa
:102d000082bf9f00040478008299b900f2b79f0047
:102d10000200e000590032000fb997000200e00005
:102d2000570032000006be007fb79700c800900031
:102d300068009000808f500004003900080078007f
:102d4000920007000000e0003b003500004020003a
:102d5000180060000a0032008e017800a2002000f6
:102d60000c00be00090207000005be0000807500cf
:102d7000070032008c0455008904e8000500370084
:102d80008e0478000a0020000b00200001003700ac
:102d90008e04780048019000680090000200500006
:102da000890f500003003100800478000a002000e1
:102db0000b0020006111b800828fd2008381d20005
:102dc000090278000c00be00c70107000907570080
:102dd0004800900009004000400498000a857500f2
:102de00004003200080078002c0007000000e0001a
:102df00011003a000e00e0000f0032006148b800f8
:102e0000808fd2008180d2000000780000f0a10005
:102e10000c01d0008001d000030641004220a80030
:102e200081864e004200a9004220ae004200a80068
:102e30000c86d300bdff3700008020001800600022
:102e400002003200080078001400070000c02000d3
:102e500018006000020032004800900060049800f2
:102e60007fb197000e0751000fb9970011000900bc
:102e70000287d80080017800010037008001eb0054
:102e8000030078004f0778004f06be004f05be00d4
:102e90004f04be006f00b10000000600889fbe0016
:102ea000000478000800e00010003a008004eb0005
:102eb000090478008800d0002076210000804000be
:102ec000100078000000e00004003200f3ff07006b
:102ed0000000e00001003d008084eb000804e800f1
:102ee000e80f5400f3ff3a002500370000002200ed
:102ef000180060008004eb0021003200a80490005c
:102f00000f00370009015100384090000000fb001d
:102f1000890078007cf707000000e00007003c0013
:102f2000280090004004980060049800500c98001d
:102f30001890a0008084eb001100370080844400ca
:102f400048019000828f5400eeff39002800900065
:102f5000400498009800780002c0200002816000c0
:102f600001003a003800900001e8a300020032009e
:102f70006004980001003700500c98008004eb00ba
:102f8000090078004f04be0000000600889fbe00c4
:102f90008a1f780000047800c80090006801900043
:102fa0000000eb00828f50003c00390018007800d0
:102fb0002200290002016000e20f510007003200e8
:102fc000012020000000e000010035000120240065
:102fd000008c70000080eb003000370002002600fb
:102fe00002006000820f500009003a003800900093
:102ff000808f50000600390008007800a7ff070006
:10300000800078000080eb000100e00023003a001f
:103010001805780000c020000000650018003a0084
:10302000a80490006002200008004000808f540037
:1030300013003a0000202000f1000700200498004f
:103040000000e00005003a002904980049049800b7
:103050008904e80039049800080037000a60a000dd
:103060000a0c780040049800012020008080400075
:1030700031049800400c9800500c98000c00070098
:1030800028009000500498003800900060049800d8
:1030900000002600180c70000000eb004f057800bf
:1030a0004f04be0000000600a08f21006200370020
:1030b000881f7800288421001804e00003003a00eb
:1030c000f9ff070020c0b300004c78004f047800df
:1030d00000000600889fbe00000478000800780009
:1030e0006eff0700800478000004200018006000d4
:1030f00002003200280090005c0007000000eb0096
:1031000020049800384090000004e00005003500dd
:103110000000fb00f3f607000000e00001003200b1
:103120008084eb00181090000000e00008003200de
:1031300037f707000000e000010032008084eb0058
:1031400018109000490007000000eb0010149800d0
:103150000008200018006000150032000001eb009c
:103160006000b8000202d000237621000302420072
:10317000940f140005003a000000400081804800d0
:10318000008041000008eb000600370061004000ad
:10319000e08048000201e800e80f5000e08f58008e
:1031a000f0ff3a0008007800300007000e003700fa
:1031b000000c780000c0eb00304498006002200052
:1031c0000800400020049800400498005004980033
:1031d000400c980060049800500c9800700498000f
:1031e00076004400000c9800090078004f04be00ef
:1031f00000000600881f78000004eb006140b80062
:10320000e2ff2f00f3ff2f000d01070002772100de
:1032100080004100110078000000e0000100320051
:10322000acff07000804e800e80f5400f3ff3a0081
:103230004f04780000000600010020000100e000bb
:1032400009003200010080000100e00006003200a9
:103250008100e900010088008100d00002008000a8
:103260008280400080087800000006000000e00036
:103270002f003200c0017800e38f51002c0036008f
:103280000308a3002a003a00f1c180000100e00019
:1032900002003200810f500004003100110098003c
:1032a000f0c18800160037008200780011019000fc
:1032b0000200e00002003200800f5100faff3900e6
:1032c0001102780084824000850f500018003900f8
:1032d000808f520003003a0083084200010078000a
:1032e000070037000200e0000300320083014000c5
:1032f000830f51000e0039001200980090009800d2
:10330000900090000100e000090032001001400030
:10331000828f500006003a00c28321000009eb00b2
:1033200010017800110841009100900011009800f0
:1033300000000600889fbe0000047800e1c1800004
:103340000100e00002003200010078000d003700ab
:10335000f1c18000e083210004003700910f540088
:10336000250036000180e800910090000100e00097
:10337000faff3a0010003700920f54001e0036008a
:103380000280e800100178000200e000faff3a0035
:1033900011017800f1c18000e083210004003700b2
:1033a000910f5400140036000180e8009100900055
:1033b000828f5000faff3a0029c28000888f5400a3
:1033c0000100310088047800090078003600070009
:1033d0000000e00004003a00888f5400050032002d
:1033e0008904d100f5ff3700091878009fff070016
:1033f000d2ff37000000eb004f04be0000000600c3
:10340000881f7800630440000800a1008000eb00e2
:10341000800f540021003600e30f540001003e00ed
:103420004800200008007800c2ff07008000eb0081
:103430000000e0001900320090007800910178004f
:1034400064815100880f5100030031001101900088
:103450000208780007003700088140000208780061
:1034600091019000130198001001780011091400d7
:1034700088087800100178000000eb000200e000ee
:1034800004003200920190000300e00001003200cd
:103490000280e800e0c188008180e8000100780037
:1034a0004f04780000000600800078000000eb0068
:1034b0000100e00005003400010078005df607001f
:1034c000e10f400001003a000000eb0000000600a0
:1034d00000c0da000000060000c0da0000000600ac
:1034e00000c0da00000006003400f8003200f800e6
:1034f0000203be00820270008502720002f0a60084
:103500008301e800a301880000f0a6008100e80024
:10351000910188001500b2000c00320010497800bb
:103520000402e90015003200610141000200390087
:103530003420ec000200280061004000f7ff390051
:103540003220ec0000002800f4ff3700100978005a
:103550000482e900090032006201410002003900e2
:103560003420ec000200280062004000f7ff390020
:103570003220ec0000002800f4ff37003200f90090
:103580003400f9000601be00000006000300e00060
:10359000070032009501800001d0fe001042780043
:1035a00005d0fe000402fb00820f52001100320021
:1035b0008301e9009501800001d0fe0010427800ef
:1035c00005d0fe000404e00008003200000278008c
:1035d0001000b00000026a004260af0000f0a000de
:1035e0000482d2000180b000e8ff37000000200014
:1035f0000100200000000600839f68000100e00039
:1036000002003d0060001000e08018000300e000b0
:1036100002003d0060011100e08119007cf7070005
:103620004f00e00002003b0060001000e080180046
:103630000000060076f707000400be000000060048
:10364000020ab900001bb9000200b8008100420064
:103650008100430000000600889fbe008a9fbe00d4
:1036600030044200b0844a0030054b0090854b0086
:103670006000b1000898be000a90be000440e1005e
:1036800005c8e10006d0e10007d8e10002003100e2
:10369000680040001008e8004f05be004f04be005f
:1036a00000000600889fbe008a9fbe0010047800bc
:1036b0009004900020059000b0059000041854007c
:1036c00005985c0006185d0007985d001100200059
:1036d0000440e10005c8e10006d0e10007d8e100a0
:1036e000010039008000eb00108810004f05be007b
:1036f0004f04be00000006001200fa00889fbe00c2
:103700008a9fbe008c9fbe00e0b79f00f1b79f006c
:1037100082bf9f0093bf9f000605be000404be0049
:103720000000eb00d0b79f00c0b79f00b0b79f006c
:10373000a0b79f0090b79f00000678005fb1970088
:10374000cfb09700820141003fb097000200e00037
:1037500004003d00370007007e805700beff0700d1
:1037600003003700330007007e805700cdff0700bd
:10377000dfb697000d00e0000c0035006fb2970037
:10378000ffb297000fbb97009fbb9700100020006f
:10379000010020006011b8000002720081827200f6
:1037a00002037300838373001b0007000c06e8000c
:1037b00001042000810f5600e0ff3a000d00e000f8
:1037c00004003d000802be000a03be007e805700d0
:1037d000a1ff07005fa897000000e00005003a0085
:1037e0001fb29700afb297003fb39700cfb39700d7
:1037f000090007006fb09700ffb097000fb997005e
:103800009fb997004f06be004f05be004f04be0093
:103810000080fa000000060001000700000006001a
:10382000a4b79f00b5b79f00c6b79f00d7b79f004a
:10383000000006004f09de0082817100b3b79f00cf
:103840004f01de008180400082807000a1b79f00a0
:103850008fb097004f09de000000400002007000aa
:1038600090b79f007fa897004f01de008180400045
:103870008280700081b79f000d0007004f3ade0084
:103880000000400004007000f0af9f000800070037
:103890000402420085824a0006034b0087834b00e6
:1038a000dfff07000802be000a03be00000006009a
:1038b0002fb29700bfb297004fb39700dfb39700c6
:1038c00000000600881f780018002000881f78007c
:1038d00089ff07008f87e9004f0478000000060089
:1038e000801feb0084ff07008f87e90000000600bf
:1038f000889fbe008a9fbe00e00f5000e08f5800f6
:10390000e00f5900e08f59000c003d006044b80002
:103910006055b8000000540081805c0002015d0029
:1039200083815d00180020001500070008003d009d
:10393000180007000004eb00050037000004eb004e
:103940000f00070002003d001200070018002000d1
:10395000dcff07000800e000060032006022b8002b
:103960006033b8000000520081805a0002015b0001
:1039700083815b004f05be004f04be0000000600bf
:10398000e00f5200e08f5a00e00f5b00e08f5b0019
:10399000000006006044b8006055b80004025400fe
:1039a00085825c0006035d0087835d0000000600e1
:1039b000889fbe008a9fbe008c1f7800e00f5000d9
:1039c000e08f5800e00f5900e08f59000d003d00d6
:1039d0006044b8006055b8000000540081805c006d
:1039e00002015d0083815d001c0020000820e100d1
:1039f00009a8e1000ab0e1000bb8e1000d003d00ac
:103a0000080037000006eb00e00f5200e08f5a007c
:103a1000e00f5b00e08f5b0006003d006044b800f3
:103a20006055b8000402540085825c0006035d0006
:103a300087835d00aaff07000c00e000060032004b
:103a40006022b8006033b8000000520081805a0044
:103a500002015b0083815b004f0678004f05be00ca
:083a60004f04be000000060047
:020000040000fa
:103a68004f6700006f780000652000003a200000d2
:103a7800416c00006572000074650000204e000073
:103a8800697600006561000075200000256400006b
:103a98001a000000415400002b4300004d4700006d
:103aa800533d000022250000730a00002200000098
:103ab8004154000044250000733b00000d00000045
:103ac800415400002b430000434d000058500000b3
:103ad8004c410000593d0000226400003a2f0000cc
:103ae80070720000655f0000616c00006572000084
:103af800746500002e77000061760000222c00001b
:103b0800332c0000300d000000410000542b000051
:103b1800434300004d580000504c0000415900003c
:103b28003d220000643a00002f6100006c6500002f
:103b380072740000652e0000776100007622000094
:103b48002c3300002c3000000d0000004154000010
:103b5800480d0000005600004f4900004345000092
:103b680020430000414c00004c3a00004245000050
:103b7800474900004e00000070720000655f0000b9
:103b8800616c00006572000074650000006100004f
:103b98006c6500007274000065000000534d000061
:103ba8005300000061700000706500006c000000a8
:103bb800415400002b4300004654000052410000cd
:103bc8004e540000583d0000226400003a2f0000c7
:103bd800257300002f250000732e00007478000064
:103be800742200000d00000000000000000000002a
:103bf8009500000000000000000000000100000027
:103c0800f9000000000000000000000008000000ab
:103c18008700000004000000000000000900000008
:103c2800af00000000000000010000000a000000d2
:103c38001b00000000000000010000000c00000054
:103c4800c300000001000000000000000d0000009b
:103c5800af0000000200000000000000100000009b
:103c6800ff0000000000000000000000110000003c
:103c7800ff0000000000000001000000120000002a
:103c8800ff00000000000000010000001800000014
:103c9800ff00000000000000010000001900000003
:103ca800ff000000000000000100000020000000ec
:103cb800ff000000000000000000000021000000dc
:103cc800ff000000000000000000000026000000c7
:103cd800df000000010000000000000037000000c5
:103ce8007300000000000000000000003a0000001f
:103cf8002500000004000000000000003b00000058
:103d0800250000000000000000000000290000005d
:103d1800ff00000004000000000000001700000081
:103d2800ff000000000000000000000043550000f4
:103d38004541000041410000414300004545000065
:103d480045490000494900004141000045920000f2
:103d5800924f00004f4f000055550000594f00008a
:103d6800554f00009c4f00009e9f000041490000f5
:103d78004f550000a5a50000a6a70000a8a90000af
:103d8800aaab0000acad0000aeaf0000b0b10000bf
:103d9800b2b30000b441000041410000b8b90000ce
:103da800babb0000bcbd0000bebf0000c0c100001f
:103db800c2c30000c4c5000041410000c8c90000da
:103dc800cacb0000cccd0000cecf0000d1d100007e
:103dd80045450000454900004949000049d900000f
:103de800dadb0000dcdd000049df00004fe1000005
:103df8004f4f00004f4f0000e6e80000e855000074
:103e08005555000059590000eeef0000f0f1000090
:103e1800f2f30000f4f50000f6f70000f8f90000ee
:103e2800fafb0000fcfd0000feff0000222a000053
:103e38002b2c00003a3b00003c3d00003e3f0000b8
:103e48005b5d00007c7f00000046000041540000dc
:103e5800004600004154000033320000000000001a
:103e6800b8690000d06f00001e6a0000386a0000c0
:103e78006a6a0000986a0000c86a0000d46a0000f4
:103e8800fa6a0000de6a0000b8690000da6f000014
:103e98001e6a0000386a00006a6a0000986a00001a
:103ea800c86a0000d46a0000fa6a0000de6a0000ee
:103eb800256400002d250000642d00002564000005
:103ec8002025000064680000256400006d250000be
:103ed8006473000020250000640000004e4f0000bd
:103ee800322e00007478000074000000303a0000a0
:103ef80000480000454c00004c4f00002e540000c4
:103f08005854000000480000656c00006c6f000009
:103f1800205700006f7200006c6400002100000050
:103f28007f0000000000000000000000000000000a
:103f38006f0000000000000000000000000000000a
:103f48003201000000000000000000000000000036
:0c3f58002c0d0000000000000000000024
:020000040000fa
:103f64000000fa00f51b07000ad0bf008080fb00a8
:103f740040842f0000804000cf80de00c901dd00b6
:103f84000200200009d0bf000080fb008000eb008d
:103f9400c500dd0000002000000171008181710076
:103fa40007d0bf000080fb008000eb00c000dd00f4
:103fb4000000200000007100818071000080fa0080
:103fc400000006000400fa00100798001e0090008c
:103fd4000000e800104078000080fb00000f78002b
:103fe4001e007800c800dd001e009000104078001c
:103ff4000080fb00008f70001e0078000080fa0033
:10400400000006000600fa00200798002e00900029
:1040140063004000104078000080fb008000eb004b
:10402400008fbe001e0078009e0090004809dd004d
:10403400c801de00830171004801dd002e009000fc
:104044000080e800104078000080fb008000eb0056
:10405400001f7100019771001e0078009e009000ff
:104064004809dd00c801de00830171004801dd005c
:104074002e0090000000e800104078000080fb0053
:104084008000eb00001f7100019771001e00780092
:104094009e0090004809dd00c801de008301710024
:1040a4004801dd002e009000104078000080fb00e5
:1040b4008000eb00001f7100019771001e00780062
:1040c4009e0090000080fa00000006000400fa0040
:1040d400000f7800110798001e00900080407800bf
:1040e4001e007800014878001e0fe8001e009000b2
:1040f4004800de00100798001e0090008040780001
:104104001e007800014878001e0fe8000080fa00c5
:10411400000006000600fa00000f7800120798005d
:10412400230798001e009000804078001e0078004d
:10413400014878001e0fe8001e009000ae009000b9
:104144004809dd004800de0000007100c808de00f8
:1041540010079800210798001e0090008040780006
:104164001e007800014878001e0fe8001e00900031
:10417400ae0090004809dd004800de000000710038
:10418400c808de0010079800210798001e00900060
:10419400804078001e007800014878001e0fe80077
:1041a4001e009000ae0090004809dd004800de00cb
:1041b40000007100c808de0010079800210798006d
:1041c4001e009000804078001e00780001487800ae
:1041d4001e0fe8000080fa00000006000a00fa0042
:1041e400200798003107980042079800ae0090001d
:1041f400010f7800be009000110798004e00900057
:104204000000e0000e0032001e0090009040780094
:104214001e007800014878001e0fe8001e00900080
:104224000000e800100798004e0090000000e9002c
:10423400400798004e0090000000e000f2ff3a00b2
:104244000080fa00000006000800fa001007980039
:1042540021079800320798009e009000010f780013
:104264002e009000804078001e00780001487800fd
:104274001e0fe8003e0090000000e900300798009f
:104284003e0090000000e000f5ff3a000080fa00d4
:10429400000006000c00fa0030079800410798005f
:1042a40052079800be009000010f7800ce009000e5
:1042b400110798000000eb00200798001e0078000a
:1042c400104078008080fb001e00900010407800b1
:1042d4000080fb0000805000200798001e0fe800bb
:1042e4001e0090000000e800100798005e00900097
:1042f4000000e900500798005e0090000000e00014
:10430400030032002e0090000000e000ebff3200ba
:104314002e0090000080fa00000006000400fa005d
:10432400000f780011079800010037001e0fe80005
:104334001e007800104078000004e00006003200ff
:104344001e007800104078008000fb001e009000e2
:10435400808f5000f5ff3a001e007800104078006e
:104364000000fb000080fa00000006000200fa00d2
:10437400004f78001e4078000004e0000200320084
:104384000000eb00010037000000eb000080fa00a1
:10439400000006000200fa00004f78001e4078007a
:1043a4000004e000020032000000eb0001003700ce
:1043b4000000eb000080fa00000006000400fa0090
:1043c400100798000000eb00000f78001e0090001a
:1043d400304090000004e000390032001e009000dc
:1043e40090189000001890001e01900046032000d1
:1043f400020343001e01900092429000140020002a
:104404000001be008600780005407800dc25070026
:104414000000e00028003a001e0090008040eb00fd
:10442400314098001e0090000019900090199000ef
:104434001e009000b0109000201090000001510068
:10444400818159001e009000f008900060089000df
:10445400800f5100818f5900190031001e00900017
:1044640020409000e24f500015003a001e009000da
:1044740000199000901990001e009000f008900020
:104484006008900002004000838048001e019000f4
:1044940046032000020343001e0190009242900054
:1044a400140020000001be0086007800054078005a
:1044b400b32507000200370010002000000f780029
:1044c4001e0078000080fa00000006000800fa00d0
:1044d4001007980022079800330798000000eb00ab
:1044e400000f78001e0090000019900090199000b1
:1044f4002e009000be009000800f5100818f590063
:104504001c0032001e009000acff0700000f780072
:104514001e0078000000e00016003a001e00900023
:1045240041032000808040001e0090001040900055
:10453400140020002e019000be0190007325070096
:104544000000e000060032000080eb008080eb00f9
:10455400200798003107980010002000000f780011
:104564001e0090002e019000be01900002189800d9
:10457400131898001e0078000080fa00000006005e
:104584000400fa00100798001e0090008bff07003b
:10459400000f78001e0078000000e0004e003a0092
:1045a4001e00900010407800e34f500041003a0094
:1045b4001e00900040409000e14f50003d003a0042
:1045c4001e0090004003b000022020008000eb0099
:1045d4001dff07001e0090002023b00051a52a00f3
:1045e400bafe07001e0090004003b00022252500fb
:1045f40013162400c7fe07001e0090008021b0009f
:104604002227270013142600c2fe07001e00900074
:1046140090089000000890001e019000c421200022
:10462400020242000001be0004007800b9fe070047
:104634001e009000f0009000600090001e019000a9
:1046440004222000020242000001be00040078009f
:10465400b0fe07001e009000901090000010900023
:1046640061004000e08048001e019000001998009d
:10467400111998001e0090009018900000189000e6
:104684001e01900046032000020343001e01900017
:1046940092429000140020000001be0086007800c1
:1046a40005407800362507001e0090008040eb008e
:1046b400414098001e009000104090000001eb0063
:1046c4008040eb004b2507000000e00002003200b0
:1046d40010002000000f78001e0078000080fa000f
:1046e400000006000600fa00000f78001207980088
:1046f400230798001e009000ae0090006200500056
:10470400e080580010079800210798001e007800e8
:10471400d00890004008900062015000e0815800e9
:104724001e009000ae009000800f5100818f590050
:1047340002003e006000b800120037001e0078003e
:1047440060129000f01290001e007800500090005b
:104754008000eb001e0190008191b900ae01900031
:10476400809bb90086017800030141009e019000fe
:104774000018b800010141008200780004004000e4
:10478400858048000080fa00000006001000fa004e
:104794005007980062079800730798005e00900025
:1047a40090007800210798006e019000fe019000af
:1047b4001000200001002000800f5100818f59005b
:1047c400080036002e00900040099000d0099000a7
:1047d4006e009000fe009000800f5100818f590000
:1047e40004003e001000200001002000008fbe00e5
:1047f400b30037000080eb008080eb00008fbe0028
:104804002e009000104078000080fb00e20f500062
:1048140059003200e30f500074003200e10f5000e1
:104824009c003a006e029000340798003e0090000d
:104834000000d100be0090000080400030079800c6
:104844002e00900020119000b01190003e009000c6
:104854004900de008000eb00020040008380480035
:104864000001be002e00900018ff07000000e000c9
:104874008c003a00be009000f01f20000080600011
:10488400ae0090004003b00000804000104078006b
:104894000080fb00400798003e0090000000e80004
:1048a400300798002e00900020119000b011900065
:1048b4003e0090004900de008000eb000200400052
:1048c400838048000001be002e009000fffe070018
:1048d4000000e00075003a00be009000f01f2000c8
:1048e40000806000ae0090004003b00000804000f3
:1048f400104078000080fb004800dd00ce009000ee
:1049040001007000400798006e0090006100600094
:10491400004078000004e000040032004e009000e3
:104924004400de006101b800110037004e00900021
:104934006101b800f0ff20000100200002027800ad
:10494400030178008001780001007800030262000e
:10495400000061008000eb00c000dd0000002000ca
:104964000001be006120b800000171008181710066
:10497400028fbe00520037002e00900020119000dc
:10498400b01190006e009000fe009000480add0017
:104994004800de0000007200c808de00020040008b
:1049a400838048000001be002e009000c7fe07006f
:1049b4000000e0003f003a002e0090004103200078
:1049c400808040006e0090000000400000017800ec
:1049d400f01f2000000061000080400079fd070006
:1049e4008000eb00008fbe00350037002e009000e1
:1049f40020119000b01190006e009000fe00900015
:104a0400490add004700de0000007200c708de002e
:104a140002004000838048000001be002e00900088
:104a2400aafe07000000e00024003a002e009000d7
:104a340041032000808040006e0090004201dd00b0
:104a4400f01f200000006100008040006dfd0700a1
:104a54000001be00f0ff2f00f1ff200002027800e9
:104a640083017800000178000100780002016200ef
:104a7400008061008000eb00c000dd000000200029
:104a8400008fbe006110b8001e1f70001e977000da
:104a94000b0037001000200001002000008fbe0032
:104aa4000700370000000000050037000000000088
:104ab4000300370000000000010037000000000080
:104ac4001e0078009e0090000080fa00000006009e
:104ad4001000fa00889fbe00300798004207980033
:104ae4005307980064079800750798002000200079
:104af400000f78004e019000de01900010002000ad
:104b040001002000800f5100818f5900f70036000a
:104b14003e00900040099000d00990004e009000a3
:104b2400de009000800f5100818f5900ef003600a5
:104b34003e009000104078000080fb00e20f50001f
:104b440073003200e30f500092003200e10f500076
:104b5400e6003a00ce009000110798001e00900075
:104b64000000d1009e0090000080400010079800d3
:104b74003e00900020119000b01190001e009000a3
:104b84004900de008000eb00020040008380480002
:104b94000001be003e0090004cfe0700000f7800ac
:104ba4001e0078000000e000c9003a003e009000ba
:104bb40041032000808040001e019000f01f20006f
:104bc4000000610000804000200798001e00900053
:104bd4000000e800100798004e009000610060009b
:104be400004078000004e0000a0032002e0090002b
:104bf40010407800ef4060006e00900000407800a4
:104c04000080fb004400dd000040780000c070001c
:104c1400020037006e00900000407800ae00900063
:104c2400804878003e00900011c0b30031409800e5
:104c34003e00900020119000b01190001e009000e2
:104c44004900de008000eb00020040008380480041
:104c54000001be003e0090001cfe0700000f78001b
:104c64001e0078000000e0009b003a003e00900027
:104c740041032000808040001e019000f01f2000ae
:104c84000000610000804000200798004e00900062
:104c940061006000004078000004e0000800320079
:104ca4006e009000fe0090004c09dd004400de0020
:104cb40000007100c408de00004078000e003700d8
:104cc4002e009000104078008040780000cfb300a0
:104cd40000c160006e009000fe009000c809dd0075
:104ce4004800de0000807100c808de000040780043
:104cf4006f40600000407100ae0090008048780072
:104d04003e00900011c0b300314098007700370096
:104d14003e00900020119000b01190004e009000d1
:104d2400de009000480add004800de00000072004a
:104d3400c808de0002004000838048000001be0075
:104d44003e009000e1fd0700000f78001e0078008f
:104d54000000e00062003a00ee0090003e00900087
:104d640042032000000141004e009000000040007a
:104d740080017800f01f20000080610000004100e5
:104d8400d2fc07003e00900011c0b30031409800ef
:104d9400560037003e00900020119000b0119000a2
:104da4004e009000de009000490add004700de005e
:104db40000007200c708de00020040008380480043
:104dc4000001be003e009000c0fd0700000f780007
:104dd4001e0078000000e00043003a006e019000dd
:104de400fe019000f0ff2f00f1ff20000202780086
:104df400830178000001780001007800020162005c
:104e0400008061008000eb00c000dd000000200095
:104e14000004be006110b8000004740081847400b2
:104e24003e00900041032000808040004e0090002e
:104e34004201dd00f01f20000000610000804000fe
:104e440070fc07000001be000000200001002f00dc
:104e540002027800030178008001780001007800e4
:104e640003026200000061008000eb00c000dd006e
:104e7400000020000001be006120b80000017100a4
:104e840081817100020074008380740060079800bf
:104e9400710798003e00900041032000808040008c
:104ea4004e0090004201dd00f01f20000000610070
:104eb400008040006e019000fe01900095fc070008
:104ec4003e00900011c0b300314098000700370045
:104ed4000000000005003700000000000300370058
:104ee4000000000001003700000000001e007800f0
:104ef4004f04be000080fa00000006001200fa0011
:104f040040079800520798006307980074079800b8
:104f1400050f98000000eb00000f78004e00900091
:104f240090007800110798005e019000ee01900057
:104f34001000200001002000800f5100818f5900d3
:104f4400080036001e00900040099000d00990002f
:104f54005e009000ee009000800f5100818f590098
:104f640002003e0020002000610037007e00900017
:104f74008e089000e00f5000e08f58000c003200c3
:104f84000082eb008082eb007e0190008e0990008d
:104f94001e009000cefe0700000f78001e0078006f
:104fa4000000e000020032001e00780050003700cc
:104fb4005e019000ee0190004e009000f3fd0700aa
:104fc40020079800310798002e009000be00900042
:104fd400e00f5000e08f5800430032002e01900093
:104fe400be0190001000200001002000800f51003d
:104ff400818f590002003a00200020003c00370055
:105004002e019000be0190000080eb008080eb0038
:10501400800f5100818f590002003a0010002000d7
:10502400330037006022b8005e019000ee0190006a
:105034001e009000a6fe0700000f78001e007800f6
:105044000000e000020032001e0078002800370053
:105054001e00900000099000900990001e0090002e
:10506400d00890004008900062005000e080580092
:10507400800f5100818f59000e0031001e009000f6
:10508400900890000008900061004000e080480013
:105094001e01900000099800110998001e0090005c
:1050a40040409000804078000104a0001e00900061
:1050b400414098002e019000be01900052079800d4
:1050c400630798001e00900040099000d0099000ea
:1050d4005e009000ee009000800f5100818f590017
:1050e400b3ff3e0001003700000000000000eb00a9
:1050f4000080fa00000006001600fa00000f980075
:10510400120f9800230f98000e089000900078006a
:10511400510798001e089000ae089000e00f500060
:10512400e08f580017003a005e0090006001900084
:10513400f001900022079800330798002e00900099
:10514400be009000e00f5000e08f580008003200cd
:105154005e00900040099000d00990002e0090005d
:10516400be009000800f5100818f59002e003e0038
:10517400100020000100200020079800310798004b
:10518400290037001e099000ae0990000e08900017
:105194007efd070060079800710798006e0190007b
:1051a400fe0190001000200001002000800f51003b
:1051b400818f590003003e001000200001002000f0
:1051c400f80037006e019000fe0190000080eb00b3
:1051d4008080eb00800f5100818f590003003a005a
:1051e4006e009000fe009000ee0037005e0090001c
:1051f40040099000d00990006e009000fe009000dd
:10520400800f5100818f5900030036006e0090001a
:10521400fe009000e30037001e099000ae099000e4
:1052240022079800330798005e00900090089000d1
:1052340000089000e00f5000e08f580002003a0090
:105244006000b800d70037006000b800008fbe00cf
:105254002e019000be0190001e089000ae08900040
:10526400800f5100818f590045003a002e009000b4
:10527400be0090001200200003002000021f400026
:10528400039748005e009000d0089000400890000a
:10529400be0f5000ae8f580003003e0020002000d7
:1052a40001002000008fbe001e0178009e019000c6
:1052b4000e08900035fd07006007980071079800fc
:1052c4006e019000fe0190001000200001002000fb
:1052d400800f5100818f5900070032006e01900049
:1052e400fe0190000080eb008080eb00800f5100f5
:1052f400818f590003003a006e009000fe00900078
:10530400a80037006e009000fe009000e00f5000ef
:10531400e08f58001a0032005e0090006001900097
:10532400f001900062079800730798006e019000e6
:10533400fe0190001000200001002000800f5100a9
:10534400818f59000c0036005e00900040099000e7
:10535400d00990006e009000fe009000800f510074
:10536400818f5900040036006e019000fe01900008
:1053740022079800330798006000b800008fbe0031
:105384001e0078009e009000e00f5000e08f58004f
:1053940041003a002e019000be019000028fbe0031
:1053a400010037000000000012002000030020006c
:1053b4001e0f41005e9749005e009000d0089000e7
:1053c40040089000be0f5000ae8f58000c003e0005
:1053d4002000200001002000008fbe002e0090005d
:1053e400be0090001e0178009e019000800f5100c5
:1053f400818f5900020036006000b8006900370050
:105404001e0178009e0190000e089000dffc07004a
:1054140060079800710798006e009000fe009000ed
:10542400e00f5000e08f58001a0032006e01900027
:10543400fe0190001000200001002000800f5100a8
:10544400818f5900070032006e019000fe01900028
:105454000080eb008080eb00800f5100818f5900a9
:1054640003003a006e009000fe0090004d003700eb
:105474002e009000be0090001e0178009e01900056
:10548400800f5100818f5900c6ff3a006000b800b8
:1054940044003700000000000082eb008082eb0033
:1054a4001e0178009e0190005e00900088fd0700b8
:1054b400400798004e0090000000e0000c003a0005
